{
  "_format": "hh-sol-artifact-1",
  "contractName": "CryptoPigs",
  "sourceName": "contracts/CryptoPigs.sol",
  "abi": [
    {
      "inputs": [],
      "stateMutability": "nonpayable",
      "type": "constructor"
    },
    {
      "anonymous": false,
      "inputs": [
        {
          "indexed": true,
          "internalType": "address",
          "name": "owner",
          "type": "address"
        },
        {
          "indexed": true,
          "internalType": "address",
          "name": "approved",
          "type": "address"
        },
        {
          "indexed": true,
          "internalType": "uint256",
          "name": "tokenId",
          "type": "uint256"
        }
      ],
      "name": "Approval",
      "type": "event"
    },
    {
      "anonymous": false,
      "inputs": [
        {
          "indexed": true,
          "internalType": "address",
          "name": "owner",
          "type": "address"
        },
        {
          "indexed": true,
          "internalType": "address",
          "name": "operator",
          "type": "address"
        },
        {
          "indexed": false,
          "internalType": "bool",
          "name": "approved",
          "type": "bool"
        }
      ],
      "name": "ApprovalForAll",
      "type": "event"
    },
    {
      "anonymous": false,
      "inputs": [
        {
          "indexed": true,
          "internalType": "address",
          "name": "previousOwner",
          "type": "address"
        },
        {
          "indexed": true,
          "internalType": "address",
          "name": "newOwner",
          "type": "address"
        }
      ],
      "name": "OwnershipTransferred",
      "type": "event"
    },
    {
      "anonymous": false,
      "inputs": [
        {
          "indexed": true,
          "internalType": "address",
          "name": "from",
          "type": "address"
        },
        {
          "indexed": true,
          "internalType": "address",
          "name": "to",
          "type": "address"
        },
        {
          "indexed": true,
          "internalType": "uint256",
          "name": "tokenId",
          "type": "uint256"
        }
      ],
      "name": "Transfer",
      "type": "event"
    },
    {
      "inputs": [],
      "name": "AmountOfNFTminted",
      "outputs": [
        {
          "internalType": "uint256",
          "name": "",
          "type": "uint256"
        }
      ],
      "stateMutability": "view",
      "type": "function"
    },
    {
      "inputs": [],
      "name": "AmountOfNFTtoMint",
      "outputs": [
        {
          "internalType": "uint256",
          "name": "",
          "type": "uint256"
        }
      ],
      "stateMutability": "view",
      "type": "function"
    },
    {
      "inputs": [
        {
          "internalType": "address",
          "name": "to",
          "type": "address"
        },
        {
          "internalType": "uint256",
          "name": "tokenId",
          "type": "uint256"
        }
      ],
      "name": "approve",
      "outputs": [],
      "stateMutability": "nonpayable",
      "type": "function"
    },
    {
      "inputs": [
        {
          "internalType": "address",
          "name": "owner",
          "type": "address"
        }
      ],
      "name": "balanceOf",
      "outputs": [
        {
          "internalType": "uint256",
          "name": "",
          "type": "uint256"
        }
      ],
      "stateMutability": "view",
      "type": "function"
    },
    {
      "inputs": [
        {
          "internalType": "uint256",
          "name": "tokenId",
          "type": "uint256"
        }
      ],
      "name": "getApproved",
      "outputs": [
        {
          "internalType": "address",
          "name": "",
          "type": "address"
        }
      ],
      "stateMutability": "view",
      "type": "function"
    },
    {
      "inputs": [
        {
          "internalType": "address",
          "name": "owner",
          "type": "address"
        },
        {
          "internalType": "address",
          "name": "operator",
          "type": "address"
        }
      ],
      "name": "isApprovedForAll",
      "outputs": [
        {
          "internalType": "bool",
          "name": "",
          "type": "bool"
        }
      ],
      "stateMutability": "view",
      "type": "function"
    },
    {
      "inputs": [],
      "name": "maxMintAmount",
      "outputs": [
        {
          "internalType": "uint256",
          "name": "",
          "type": "uint256"
        }
      ],
      "stateMutability": "view",
      "type": "function"
    },
    {
      "inputs": [],
      "name": "maxNFT",
      "outputs": [
        {
          "internalType": "uint256",
          "name": "",
          "type": "uint256"
        }
      ],
      "stateMutability": "view",
      "type": "function"
    },
    {
      "inputs": [
        {
          "internalType": "uint256",
          "name": "_mintAmt",
          "type": "uint256"
        }
      ],
      "name": "mint",
      "outputs": [],
      "stateMutability": "nonpayable",
      "type": "function"
    },
    {
      "inputs": [],
      "name": "name",
      "outputs": [
        {
          "internalType": "string",
          "name": "",
          "type": "string"
        }
      ],
      "stateMutability": "view",
      "type": "function"
    },
    {
      "inputs": [],
      "name": "owner",
      "outputs": [
        {
          "internalType": "address",
          "name": "",
          "type": "address"
        }
      ],
      "stateMutability": "view",
      "type": "function"
    },
    {
      "inputs": [
        {
          "internalType": "uint256",
          "name": "tokenId",
          "type": "uint256"
        }
      ],
      "name": "ownerOf",
      "outputs": [
        {
          "internalType": "address",
          "name": "",
          "type": "address"
        }
      ],
      "stateMutability": "view",
      "type": "function"
    },
    {
      "inputs": [],
      "name": "renounceOwnership",
      "outputs": [],
      "stateMutability": "nonpayable",
      "type": "function"
    },
    {
      "inputs": [
        {
          "internalType": "address",
          "name": "from",
          "type": "address"
        },
        {
          "internalType": "address",
          "name": "to",
          "type": "address"
        },
        {
          "internalType": "uint256",
          "name": "tokenId",
          "type": "uint256"
        }
      ],
      "name": "safeTransferFrom",
      "outputs": [],
      "stateMutability": "nonpayable",
      "type": "function"
    },
    {
      "inputs": [
        {
          "internalType": "address",
          "name": "from",
          "type": "address"
        },
        {
          "internalType": "address",
          "name": "to",
          "type": "address"
        },
        {
          "internalType": "uint256",
          "name": "tokenId",
          "type": "uint256"
        },
        {
          "internalType": "bytes",
          "name": "data",
          "type": "bytes"
        }
      ],
      "name": "safeTransferFrom",
      "outputs": [],
      "stateMutability": "nonpayable",
      "type": "function"
    },
    {
      "inputs": [
        {
          "internalType": "address",
          "name": "operator",
          "type": "address"
        },
        {
          "internalType": "bool",
          "name": "approved",
          "type": "bool"
        }
      ],
      "name": "setApprovalForAll",
      "outputs": [],
      "stateMutability": "nonpayable",
      "type": "function"
    },
    {
      "inputs": [
        {
          "internalType": "bytes4",
          "name": "interfaceId",
          "type": "bytes4"
        }
      ],
      "name": "supportsInterface",
      "outputs": [
        {
          "internalType": "bool",
          "name": "",
          "type": "bool"
        }
      ],
      "stateMutability": "view",
      "type": "function"
    },
    {
      "inputs": [],
      "name": "symbol",
      "outputs": [
        {
          "internalType": "string",
          "name": "",
          "type": "string"
        }
      ],
      "stateMutability": "view",
      "type": "function"
    },
    {
      "inputs": [
        {
          "internalType": "uint256",
          "name": "index",
          "type": "uint256"
        }
      ],
      "name": "tokenByIndex",
      "outputs": [
        {
          "internalType": "uint256",
          "name": "",
          "type": "uint256"
        }
      ],
      "stateMutability": "view",
      "type": "function"
    },
    {
      "inputs": [
        {
          "internalType": "address",
          "name": "owner",
          "type": "address"
        },
        {
          "internalType": "uint256",
          "name": "index",
          "type": "uint256"
        }
      ],
      "name": "tokenOfOwnerByIndex",
      "outputs": [
        {
          "internalType": "uint256",
          "name": "",
          "type": "uint256"
        }
      ],
      "stateMutability": "view",
      "type": "function"
    },
    {
      "inputs": [
        {
          "internalType": "uint256",
          "name": "tokenId",
          "type": "uint256"
        }
      ],
      "name": "tokenURI",
      "outputs": [
        {
          "internalType": "string",
          "name": "",
          "type": "string"
        }
      ],
      "stateMutability": "view",
      "type": "function"
    },
    {
      "inputs": [],
      "name": "totalSupply",
      "outputs": [
        {
          "internalType": "uint256",
          "name": "",
          "type": "uint256"
        }
      ],
      "stateMutability": "view",
      "type": "function"
    },
    {
      "inputs": [
        {
          "internalType": "address",
          "name": "from",
          "type": "address"
        },
        {
          "internalType": "address",
          "name": "to",
          "type": "address"
        },
        {
          "internalType": "uint256",
          "name": "tokenId",
          "type": "uint256"
        }
      ],
      "name": "transferFrom",
      "outputs": [],
      "stateMutability": "nonpayable",
      "type": "function"
    },
    {
      "inputs": [
        {
          "internalType": "address",
          "name": "newOwner",
          "type": "address"
        }
      ],
      "name": "transferOwnership",
      "outputs": [],
      "stateMutability": "nonpayable",
      "type": "function"
    }
  ],
  "bytecode": "0x60806040526101f4600b55600a600c553480156200001c57600080fd5b506040518060400160405280600c81526020017f50726f6a656374207069677300000000000000000000000000000000000000008152506040518060400160405280600481526020017f50504773000000000000000000000000000000000000000000000000000000008152508160009080519060200190620000a1929190620001b1565b508060019080519060200190620000ba929190620001b1565b505050620000dd620000d1620000e360201b60201c565b620000eb60201b60201c565b620002c6565b600033905090565b6000600a60009054906101000a900473ffffffffffffffffffffffffffffffffffffffff16905081600a60006101000a81548173ffffffffffffffffffffffffffffffffffffffff021916908373ffffffffffffffffffffffffffffffffffffffff1602179055508173ffffffffffffffffffffffffffffffffffffffff168173ffffffffffffffffffffffffffffffffffffffff167f8be0079c531659141344cd1fd0a4f28419497f9722a3daafe3b4186f6b6457e060405160405180910390a35050565b828054620001bf9062000290565b90600052602060002090601f016020900481019282620001e357600085556200022f565b82601f10620001fe57805160ff19168380011785556200022f565b828001600101855582156200022f579182015b828111156200022e57825182559160200191906001019062000211565b5b5090506200023e919062000242565b5090565b5b808211156200025d57600081600090555060010162000243565b5090565b7f4e487b7100000000000000000000000000000000000000000000000000000000600052602260045260246000fd5b60006002820490506001821680620002a957607f821691505b60208210811415620002c057620002bf62000261565b5b50919050565b61344780620002d66000396000f3fe608060405234801561001057600080fd5b50600436106101585760003560e01c8063715018a6116100c3578063b88d4fde1161007c578063b88d4fde146103c7578063c87b56dd146103e3578063e456b01c14610413578063e985e9c514610431578063f2fde38b14610461578063f42e376d1461047d57610158565b8063715018a61461032b5780638da5cb5b1461033557806395d89b4114610353578063a0712d6814610371578063a22cb4651461038d578063a37958bd146103a957610158565b806323b872dd1161011557806323b872dd146102335780632f745c591461024f57806342842e0e1461027f5780634f6ccce71461029b5780636352211e146102cb57806370a08231146102fb57610158565b806301ffc9a71461015d57806306fdde031461018d578063081812fc146101ab578063095ea7b3146101db57806318160ddd146101f7578063239c70ae14610215575b600080fd5b61017760048036038101906101729190612124565b61049b565b604051610184919061216c565b60405180910390f35b610195610515565b6040516101a29190612220565b60405180910390f35b6101c560048036038101906101c09190612278565b6105a7565b6040516101d291906122e6565b60405180910390f35b6101f560048036038101906101f0919061232d565b6105ed565b005b6101ff610705565b60405161020c919061237c565b60405180910390f35b61021d610712565b60405161022a919061237c565b60405180910390f35b61024d60048036038101906102489190612397565b610718565b005b6102696004803603810190610264919061232d565b610778565b604051610276919061237c565b60405180910390f35b61029960048036038101906102949190612397565b61081d565b005b6102b560048036038101906102b09190612278565b61083d565b6040516102c2919061237c565b60405180910390f35b6102e560048036038101906102e09190612278565b6108ae565b6040516102f291906122e6565b60405180910390f35b610315600480360381019061031091906123ea565b610960565b604051610322919061237c565b60405180910390f35b610333610a18565b005b61033d610a2c565b60405161034a91906122e6565b60405180910390f35b61035b610a56565b6040516103689190612220565b60405180910390f35b61038b60048036038101906103869190612278565b610ae8565b005b6103a760048036038101906103a29190612443565b610c23565b005b6103b1610c39565b6040516103be919061237c565b60405180910390f35b6103e160048036038101906103dc91906125b8565b610c46565b005b6103fd60048036038101906103f89190612278565b610ca8565b60405161040a9190612220565b60405180910390f35b61041b610d21565b604051610428919061237c565b60405180910390f35b61044b6004803603810190610446919061263b565b610d27565b604051610458919061216c565b60405180910390f35b61047b600480360381019061047691906123ea565b610dbb565b005b610485610e3f565b604051610492919061237c565b60405180910390f35b60007f780e9d63000000000000000000000000000000000000000000000000000000007bffffffffffffffffffffffffffffffffffffffffffffffffffffffff1916827bffffffffffffffffffffffffffffffffffffffffffffffffffffffff1916148061050e575061050d82610e59565b5b9050919050565b606060008054610524906126aa565b80601f0160208091040260200160405190810160405280929190818152602001828054610550906126aa565b801561059d5780601f106105725761010080835404028352916020019161059d565b820191906000526020600020905b81548152906001019060200180831161058057829003601f168201915b5050505050905090565b60006105b282610f3b565b6004600083815260200190815260200160002060009054906101000a900473ffffffffffffffffffffffffffffffffffffffff169050919050565b60006105f8826108ae565b90508073ffffffffffffffffffffffffffffffffffffffff168373ffffffffffffffffffffffffffffffffffffffff161415610669576040517f08c379a00000000000000000000000000000000000000000000000000000000081526004016106609061274e565b60405180910390fd5b8073ffffffffffffffffffffffffffffffffffffffff16610688610f86565b73ffffffffffffffffffffffffffffffffffffffff1614806106b757506106b6816106b1610f86565b610d27565b5b6106f6576040517f08c379a00000000000000000000000000000000000000000000000000000000081526004016106ed906127e0565b60405180910390fd5b6107008383610f8e565b505050565b6000600880549050905090565b600c5481565b610729610723610f86565b82611047565b610768576040517f08c379a000000000000000000000000000000000000000000000000000000000815260040161075f90612872565b60405180910390fd5b6107738383836110dc565b505050565b600061078383610960565b82106107c4576040517f08c379a00000000000000000000000000000000000000000000000000000000081526004016107bb90612904565b60405180910390fd5b600660008473ffffffffffffffffffffffffffffffffffffffff1673ffffffffffffffffffffffffffffffffffffffff168152602001908152602001600020600083815260200190815260200160002054905092915050565b61083883838360405180602001604052806000815250610c46565b505050565b6000610847610705565b8210610888576040517f08c379a000000000000000000000000000000000000000000000000000000000815260040161087f90612996565b60405180910390fd5b6008828154811061089c5761089b6129b6565b5b90600052602060002001549050919050565b6000806002600084815260200190815260200160002060009054906101000a900473ffffffffffffffffffffffffffffffffffffffff169050600073ffffffffffffffffffffffffffffffffffffffff168173ffffffffffffffffffffffffffffffffffffffff161415610957576040517f08c379a000000000000000000000000000000000000000000000000000000000815260040161094e90612a31565b60405180910390fd5b80915050919050565b60008073ffffffffffffffffffffffffffffffffffffffff168273ffffffffffffffffffffffffffffffffffffffff1614156109d1576040517f08c379a00000000000000000000000000000000000000000000000000000000081526004016109c890612ac3565b60405180910390fd5b600360008373ffffffffffffffffffffffffffffffffffffffff1673ffffffffffffffffffffffffffffffffffffffff168152602001908152602001600020549050919050565b610a20611343565b610a2a60006113c1565b565b6000600a60009054906101000a900473ffffffffffffffffffffffffffffffffffffffff16905090565b606060018054610a65906126aa565b80601f0160208091040260200160405190810160405280929190818152602001828054610a91906126aa565b8015610ade5780601f10610ab357610100808354040283529160200191610ade565b820191906000526020600020905b815481529060010190602001808311610ac157829003601f168201915b5050505050905090565b600c54811115610b2d576040517f08c379a0000000000000000000000000000000000000000000000000000000008152600401610b2490612b2f565b60405180910390fd5b600b54600c5482610b3e9190612b7e565b1115610b7f576040517f08c379a0000000000000000000000000000000000000000000000000000000008152600401610b7690612c20565b60405180910390fd5b600073ffffffffffffffffffffffffffffffffffffffff163373ffffffffffffffffffffffffffffffffffffffff161415610bb957600080fd5b60008111610bc657600080fd5b6000600190505b818111610c1f57600d819080600181540180825580915050600190039060005260206000200160009091909190915055610c0c33600d80549050611487565b8080610c1790612c40565b915050610bcd565b5050565b610c35610c2e610f86565b83836114a5565b5050565b6000600d80549050905090565b610c57610c51610f86565b83611047565b610c96576040517f08c379a0000000000000000000000000000000000000000000000000000000008152600401610c8d90612872565b60405180910390fd5b610ca284848484611612565b50505050565b6060610cb38261166e565b610cf2576040517f08c379a0000000000000000000000000000000000000000000000000000000008152600401610ce990612cd5565b60405180910390fd5b610cfb826116da565b604051602001610d0b9190612e15565b6040516020818303038152906040529050919050565b600b5481565b6000600560008473ffffffffffffffffffffffffffffffffffffffff1673ffffffffffffffffffffffffffffffffffffffff16815260200190815260200160002060008373ffffffffffffffffffffffffffffffffffffffff1673ffffffffffffffffffffffffffffffffffffffff16815260200190815260200160002060009054906101000a900460ff16905092915050565b610dc3611343565b600073ffffffffffffffffffffffffffffffffffffffff168173ffffffffffffffffffffffffffffffffffffffff161415610e33576040517f08c379a0000000000000000000000000000000000000000000000000000000008152600401610e2a90612eb4565b60405180910390fd5b610e3c816113c1565b50565b6000600d80549050600b54610e549190612ed4565b905090565b60007f80ac58cd000000000000000000000000000000000000000000000000000000007bffffffffffffffffffffffffffffffffffffffffffffffffffffffff1916827bffffffffffffffffffffffffffffffffffffffffffffffffffffffff19161480610f2457507f5b5e139f000000000000000000000000000000000000000000000000000000007bffffffffffffffffffffffffffffffffffffffffffffffffffffffff1916827bffffffffffffffffffffffffffffffffffffffffffffffffffffffff1916145b80610f345750610f338261183b565b5b9050919050565b610f448161166e565b610f83576040517f08c379a0000000000000000000000000000000000000000000000000000000008152600401610f7a90612a31565b60405180910390fd5b50565b600033905090565b816004600083815260200190815260200160002060006101000a81548173ffffffffffffffffffffffffffffffffffffffff021916908373ffffffffffffffffffffffffffffffffffffffff160217905550808273ffffffffffffffffffffffffffffffffffffffff16611001836108ae565b73ffffffffffffffffffffffffffffffffffffffff167f8c5be1e5ebec7d5bd14f71427d1e84f3dd0314c0f7b2291e5b200ac8c7c3b92560405160405180910390a45050565b600080611053836108ae565b90508073ffffffffffffffffffffffffffffffffffffffff168473ffffffffffffffffffffffffffffffffffffffff16148061109557506110948185610d27565b5b806110d357508373ffffffffffffffffffffffffffffffffffffffff166110bb846105a7565b73ffffffffffffffffffffffffffffffffffffffff16145b91505092915050565b8273ffffffffffffffffffffffffffffffffffffffff166110fc826108ae565b73ffffffffffffffffffffffffffffffffffffffff1614611152576040517f08c379a000000000000000000000000000000000000000000000000000000000815260040161114990612f7a565b60405180910390fd5b600073ffffffffffffffffffffffffffffffffffffffff168273ffffffffffffffffffffffffffffffffffffffff1614156111c2576040517f08c379a00000000000000000000000000000000000000000000000000000000081526004016111b99061300c565b60405180910390fd5b6111cd8383836118a5565b6111d8600082610f8e565b6001600360008573ffffffffffffffffffffffffffffffffffffffff1673ffffffffffffffffffffffffffffffffffffffff16815260200190815260200160002060008282546112289190612ed4565b925050819055506001600360008473ffffffffffffffffffffffffffffffffffffffff1673ffffffffffffffffffffffffffffffffffffffff168152602001908152602001600020600082825461127f9190612b7e565b92505081905550816002600083815260200190815260200160002060006101000a81548173ffffffffffffffffffffffffffffffffffffffff021916908373ffffffffffffffffffffffffffffffffffffffff160217905550808273ffffffffffffffffffffffffffffffffffffffff168473ffffffffffffffffffffffffffffffffffffffff167fddf252ad1be2c89b69c2b068fc378daa952ba7f163c4a11628f55a4df523b3ef60405160405180910390a461133e8383836119b9565b505050565b61134b610f86565b73ffffffffffffffffffffffffffffffffffffffff16611369610a2c565b73ffffffffffffffffffffffffffffffffffffffff16146113bf576040517f08c379a00000000000000000000000000000000000000000000000000000000081526004016113b690613078565b60405180910390fd5b565b6000600a60009054906101000a900473ffffffffffffffffffffffffffffffffffffffff16905081600a60006101000a81548173ffffffffffffffffffffffffffffffffffffffff021916908373ffffffffffffffffffffffffffffffffffffffff1602179055508173ffffffffffffffffffffffffffffffffffffffff168173ffffffffffffffffffffffffffffffffffffffff167f8be0079c531659141344cd1fd0a4f28419497f9722a3daafe3b4186f6b6457e060405160405180910390a35050565b6114a18282604051806020016040528060008152506119be565b5050565b8173ffffffffffffffffffffffffffffffffffffffff168373ffffffffffffffffffffffffffffffffffffffff161415611514576040517f08c379a000000000000000000000000000000000000000000000000000000000815260040161150b906130e4565b60405180910390fd5b80600560008573ffffffffffffffffffffffffffffffffffffffff1673ffffffffffffffffffffffffffffffffffffffff16815260200190815260200160002060008473ffffffffffffffffffffffffffffffffffffffff1673ffffffffffffffffffffffffffffffffffffffff16815260200190815260200160002060006101000a81548160ff0219169083151502179055508173ffffffffffffffffffffffffffffffffffffffff168373ffffffffffffffffffffffffffffffffffffffff167f17307eab39ab6107e8899845ad3d59bd9653f200f220920489ca2b5937696c3183604051611605919061216c565b60405180910390a3505050565b61161d8484846110dc565b61162984848484611a19565b611668576040517f08c379a000000000000000000000000000000000000000000000000000000000815260040161165f90613176565b60405180910390fd5b50505050565b60008073ffffffffffffffffffffffffffffffffffffffff166002600084815260200190815260200160002060009054906101000a900473ffffffffffffffffffffffffffffffffffffffff1673ffffffffffffffffffffffffffffffffffffffff1614159050919050565b60606000821415611722576040518060400160405280600181526020017f30000000000000000000000000000000000000000000000000000000000000008152509050611836565b600082905060005b6000821461175457808061173d90612c40565b915050600a8261174d91906131c5565b915061172a565b60008167ffffffffffffffff8111156117705761176f61248d565b5b6040519080825280601f01601f1916602001820160405280156117a25781602001600182028036833780820191505090505b5090505b6000851461182f576001826117bb9190612ed4565b9150600a856117ca91906131f6565b60306117d69190612b7e565b60f81b8183815181106117ec576117eb6129b6565b5b60200101907effffffffffffffffffffffffffffffffffffffffffffffffffffffffffffff1916908160001a905350600a8561182891906131c5565b94506117a6565b8093505050505b919050565b60007f01ffc9a7000000000000000000000000000000000000000000000000000000007bffffffffffffffffffffffffffffffffffffffffffffffffffffffff1916827bffffffffffffffffffffffffffffffffffffffffffffffffffffffff1916149050919050565b6118b0838383611bb0565b600073ffffffffffffffffffffffffffffffffffffffff168373ffffffffffffffffffffffffffffffffffffffff1614156118f3576118ee81611bb5565b611932565b8173ffffffffffffffffffffffffffffffffffffffff168373ffffffffffffffffffffffffffffffffffffffff1614611931576119308382611bfe565b5b5b600073ffffffffffffffffffffffffffffffffffffffff168273ffffffffffffffffffffffffffffffffffffffff1614156119755761197081611d6b565b6119b4565b8273ffffffffffffffffffffffffffffffffffffffff168273ffffffffffffffffffffffffffffffffffffffff16146119b3576119b28282611e3c565b5b5b505050565b505050565b6119c88383611ebb565b6119d56000848484611a19565b611a14576040517f08c379a0000000000000000000000000000000000000000000000000000000008152600401611a0b90613176565b60405180910390fd5b505050565b6000611a3a8473ffffffffffffffffffffffffffffffffffffffff16612095565b15611ba3578373ffffffffffffffffffffffffffffffffffffffff1663150b7a02611a63610f86565b8786866040518563ffffffff1660e01b8152600401611a85949392919061327c565b602060405180830381600087803b158015611a9f57600080fd5b505af1925050508015611ad057506040513d601f19601f82011682018060405250810190611acd91906132dd565b60015b611b53573d8060008114611b00576040519150601f19603f3d011682016040523d82523d6000602084013e611b05565b606091505b50600081511415611b4b576040517f08c379a0000000000000000000000000000000000000000000000000000000008152600401611b4290613176565b60405180910390fd5b805181602001fd5b63150b7a0260e01b7bffffffffffffffffffffffffffffffffffffffffffffffffffffffff1916817bffffffffffffffffffffffffffffffffffffffffffffffffffffffff191614915050611ba8565b600190505b949350505050565b505050565b6008805490506009600083815260200190815260200160002081905550600881908060018154018082558091505060019003906000526020600020016000909190919091505550565b60006001611c0b84610960565b611c159190612ed4565b9050600060076000848152602001908152602001600020549050818114611cfa576000600660008673ffffffffffffffffffffffffffffffffffffffff1673ffffffffffffffffffffffffffffffffffffffff168152602001908152602001600020600084815260200190815260200160002054905080600660008773ffffffffffffffffffffffffffffffffffffffff1673ffffffffffffffffffffffffffffffffffffffff168152602001908152602001600020600084815260200190815260200160002081905550816007600083815260200190815260200160002081905550505b6007600084815260200190815260200160002060009055600660008573ffffffffffffffffffffffffffffffffffffffff1673ffffffffffffffffffffffffffffffffffffffff16815260200190815260200160002060008381526020019081526020016000206000905550505050565b60006001600880549050611d7f9190612ed4565b9050600060096000848152602001908152602001600020549050600060088381548110611daf57611dae6129b6565b5b906000526020600020015490508060088381548110611dd157611dd06129b6565b5b906000526020600020018190555081600960008381526020019081526020016000208190555060096000858152602001908152602001600020600090556008805480611e2057611e1f61330a565b5b6001900381819060005260206000200160009055905550505050565b6000611e4783610960565b905081600660008573ffffffffffffffffffffffffffffffffffffffff1673ffffffffffffffffffffffffffffffffffffffff168152602001908152602001600020600083815260200190815260200160002081905550806007600084815260200190815260200160002081905550505050565b600073ffffffffffffffffffffffffffffffffffffffff168273ffffffffffffffffffffffffffffffffffffffff161415611f2b576040517f08c379a0000000000000000000000000000000000000000000000000000000008152600401611f2290613385565b60405180910390fd5b611f348161166e565b15611f74576040517f08c379a0000000000000000000000000000000000000000000000000000000008152600401611f6b906133f1565b60405180910390fd5b611f80600083836118a5565b6001600360008473ffffffffffffffffffffffffffffffffffffffff1673ffffffffffffffffffffffffffffffffffffffff1681526020019081526020016000206000828254611fd09190612b7e565b92505081905550816002600083815260200190815260200160002060006101000a81548173ffffffffffffffffffffffffffffffffffffffff021916908373ffffffffffffffffffffffffffffffffffffffff160217905550808273ffffffffffffffffffffffffffffffffffffffff16600073ffffffffffffffffffffffffffffffffffffffff167fddf252ad1be2c89b69c2b068fc378daa952ba7f163c4a11628f55a4df523b3ef60405160405180910390a4612091600083836119b9565b5050565b6000808273ffffffffffffffffffffffffffffffffffffffff163b119050919050565b6000604051905090565b600080fd5b600080fd5b60007fffffffff0000000000000000000000000000000000000000000000000000000082169050919050565b612101816120cc565b811461210c57600080fd5b50565b60008135905061211e816120f8565b92915050565b60006020828403121561213a576121396120c2565b5b60006121488482850161210f565b91505092915050565b60008115159050919050565b61216681612151565b82525050565b6000602082019050612181600083018461215d565b92915050565b600081519050919050565b600082825260208201905092915050565b60005b838110156121c15780820151818401526020810190506121a6565b838111156121d0576000848401525b50505050565b6000601f19601f8301169050919050565b60006121f282612187565b6121fc8185612192565b935061220c8185602086016121a3565b612215816121d6565b840191505092915050565b6000602082019050818103600083015261223a81846121e7565b905092915050565b6000819050919050565b61225581612242565b811461226057600080fd5b50565b6000813590506122728161224c565b92915050565b60006020828403121561228e5761228d6120c2565b5b600061229c84828501612263565b91505092915050565b600073ffffffffffffffffffffffffffffffffffffffff82169050919050565b60006122d0826122a5565b9050919050565b6122e0816122c5565b82525050565b60006020820190506122fb60008301846122d7565b92915050565b61230a816122c5565b811461231557600080fd5b50565b60008135905061232781612301565b92915050565b60008060408385031215612344576123436120c2565b5b600061235285828601612318565b925050602061236385828601612263565b9150509250929050565b61237681612242565b82525050565b6000602082019050612391600083018461236d565b92915050565b6000806000606084860312156123b0576123af6120c2565b5b60006123be86828701612318565b93505060206123cf86828701612318565b92505060406123e086828701612263565b9150509250925092565b600060208284031215612400576123ff6120c2565b5b600061240e84828501612318565b91505092915050565b61242081612151565b811461242b57600080fd5b50565b60008135905061243d81612417565b92915050565b6000806040838503121561245a576124596120c2565b5b600061246885828601612318565b92505060206124798582860161242e565b9150509250929050565b600080fd5b600080fd5b7f4e487b7100000000000000000000000000000000000000000000000000000000600052604160045260246000fd5b6124c5826121d6565b810181811067ffffffffffffffff821117156124e4576124e361248d565b5b80604052505050565b60006124f76120b8565b905061250382826124bc565b919050565b600067ffffffffffffffff8211156125235761252261248d565b5b61252c826121d6565b9050602081019050919050565b82818337600083830152505050565b600061255b61255684612508565b6124ed565b90508281526020810184848401111561257757612576612488565b5b612582848285612539565b509392505050565b600082601f83011261259f5761259e612483565b5b81356125af848260208601612548565b91505092915050565b600080600080608085870312156125d2576125d16120c2565b5b60006125e087828801612318565b94505060206125f187828801612318565b935050604061260287828801612263565b925050606085013567ffffffffffffffff811115612623576126226120c7565b5b61262f8782880161258a565b91505092959194509250565b60008060408385031215612652576126516120c2565b5b600061266085828601612318565b925050602061267185828601612318565b9150509250929050565b7f4e487b7100000000000000000000000000000000000000000000000000000000600052602260045260246000fd5b600060028204905060018216806126c257607f821691505b602082108114156126d6576126d561267b565b5b50919050565b7f4552433732313a20617070726f76616c20746f2063757272656e74206f776e6560008201527f7200000000000000000000000000000000000000000000000000000000000000602082015250565b6000612738602183612192565b9150612743826126dc565b604082019050919050565b600060208201905081810360008301526127678161272b565b9050919050565b7f4552433732313a20617070726f76652063616c6c6572206973206e6f7420746f60008201527f6b656e206f776e6572206e6f7220617070726f76656420666f7220616c6c0000602082015250565b60006127ca603e83612192565b91506127d58261276e565b604082019050919050565b600060208201905081810360008301526127f9816127bd565b9050919050565b7f4552433732313a2063616c6c6572206973206e6f7420746f6b656e206f776e6560008201527f72206e6f7220617070726f766564000000000000000000000000000000000000602082015250565b600061285c602e83612192565b915061286782612800565b604082019050919050565b6000602082019050818103600083015261288b8161284f565b9050919050565b7f455243373231456e756d657261626c653a206f776e657220696e646578206f7560008201527f74206f6620626f756e6473000000000000000000000000000000000000000000602082015250565b60006128ee602b83612192565b91506128f982612892565b604082019050919050565b6000602082019050818103600083015261291d816128e1565b9050919050565b7f455243373231456e756d657261626c653a20676c6f62616c20696e646578206f60008201527f7574206f6620626f756e64730000000000000000000000000000000000000000602082015250565b6000612980602c83612192565b915061298b82612924565b604082019050919050565b600060208201905081810360008301526129af81612973565b9050919050565b7f4e487b7100000000000000000000000000000000000000000000000000000000600052603260045260246000fd5b7f4552433732313a20696e76616c696420746f6b656e2049440000000000000000600082015250565b6000612a1b601883612192565b9150612a26826129e5565b602082019050919050565b60006020820190508181036000830152612a4a81612a0e565b9050919050565b7f4552433732313a2061646472657373207a65726f206973206e6f74206120766160008201527f6c6964206f776e65720000000000000000000000000000000000000000000000602082015250565b6000612aad602983612192565b9150612ab882612a51565b604082019050919050565b60006020820190508181036000830152612adc81612aa0565b9050919050565b7f63616e6e6f7420657863656564206d61784d696e74416d6f756e740000000000600082015250565b6000612b19601b83612192565b9150612b2482612ae3565b602082019050919050565b60006020820190508181036000830152612b4881612b0c565b9050919050565b7f4e487b7100000000000000000000000000000000000000000000000000000000600052601160045260246000fd5b6000612b8982612242565b9150612b9483612242565b9250827fffffffffffffffffffffffffffffffffffffffffffffffffffffffffffffffff03821115612bc957612bc8612b4f565b5b828201905092915050565b7f63616e6e6f7420657863656564206d61784e4654000000000000000000000000600082015250565b6000612c0a601483612192565b9150612c1582612bd4565b602082019050919050565b60006020820190508181036000830152612c3981612bfd565b9050919050565b6000612c4b82612242565b91507fffffffffffffffffffffffffffffffffffffffffffffffffffffffffffffffff821415612c7e57612c7d612b4f565b5b600182019050919050565b7f546f6b656e20496420646f6573206e6f74206578697374000000000000000000600082015250565b6000612cbf601783612192565b9150612cca82612c89565b602082019050919050565b60006020820190508181036000830152612cee81612cb2565b9050919050565b600081905092915050565b7f697066733a2f2f62616679626569657935636279366a7462346b757579776d7060008201527f626f706b6567796f34643233626e62756a717870616634707361707337796a7460208201527f796d2f0000000000000000000000000000000000000000000000000000000000604082015250565b6000612d82604383612cf5565b9150612d8d82612d00565b604382019050919050565b6000612da382612187565b612dad8185612cf5565b9350612dbd8185602086016121a3565b80840191505092915050565b7f2e6a736f6e000000000000000000000000000000000000000000000000000000600082015250565b6000612dff600583612cf5565b9150612e0a82612dc9565b600582019050919050565b6000612e2082612d75565b9150612e2c8284612d98565b9150612e3782612df2565b915081905092915050565b7f4f776e61626c653a206e6577206f776e657220697320746865207a65726f206160008201527f6464726573730000000000000000000000000000000000000000000000000000602082015250565b6000612e9e602683612192565b9150612ea982612e42565b604082019050919050565b60006020820190508181036000830152612ecd81612e91565b9050919050565b6000612edf82612242565b9150612eea83612242565b925082821015612efd57612efc612b4f565b5b828203905092915050565b7f4552433732313a207472616e736665722066726f6d20696e636f72726563742060008201527f6f776e6572000000000000000000000000000000000000000000000000000000602082015250565b6000612f64602583612192565b9150612f6f82612f08565b604082019050919050565b60006020820190508181036000830152612f9381612f57565b9050919050565b7f4552433732313a207472616e7366657220746f20746865207a65726f2061646460008201527f7265737300000000000000000000000000000000000000000000000000000000602082015250565b6000612ff6602483612192565b915061300182612f9a565b604082019050919050565b6000602082019050818103600083015261302581612fe9565b9050919050565b7f4f776e61626c653a2063616c6c6572206973206e6f7420746865206f776e6572600082015250565b6000613062602083612192565b915061306d8261302c565b602082019050919050565b6000602082019050818103600083015261309181613055565b9050919050565b7f4552433732313a20617070726f766520746f2063616c6c657200000000000000600082015250565b60006130ce601983612192565b91506130d982613098565b602082019050919050565b600060208201905081810360008301526130fd816130c1565b9050919050565b7f4552433732313a207472616e7366657220746f206e6f6e20455243373231526560008201527f63656976657220696d706c656d656e7465720000000000000000000000000000602082015250565b6000613160603283612192565b915061316b82613104565b604082019050919050565b6000602082019050818103600083015261318f81613153565b9050919050565b7f4e487b7100000000000000000000000000000000000000000000000000000000600052601260045260246000fd5b60006131d082612242565b91506131db83612242565b9250826131eb576131ea613196565b5b828204905092915050565b600061320182612242565b915061320c83612242565b92508261321c5761321b613196565b5b828206905092915050565b600081519050919050565b600082825260208201905092915050565b600061324e82613227565b6132588185613232565b93506132688185602086016121a3565b613271816121d6565b840191505092915050565b600060808201905061329160008301876122d7565b61329e60208301866122d7565b6132ab604083018561236d565b81810360608301526132bd8184613243565b905095945050505050565b6000815190506132d7816120f8565b92915050565b6000602082840312156132f3576132f26120c2565b5b6000613301848285016132c8565b91505092915050565b7f4e487b7100000000000000000000000000000000000000000000000000000000600052603160045260246000fd5b7f4552433732313a206d696e7420746f20746865207a65726f2061646472657373600082015250565b600061336f602083612192565b915061337a82613339565b602082019050919050565b6000602082019050818103600083015261339e81613362565b9050919050565b7f4552433732313a20746f6b656e20616c7265616479206d696e74656400000000600082015250565b60006133db601c83612192565b91506133e6826133a5565b602082019050919050565b6000602082019050818103600083015261340a816133ce565b905091905056fea264697066735822122044fe5e75e538150ab0043ee73d097c4149b1dcb4887b029b9fe9cfc4cc46ae8e64736f6c63430008090033",
  "linkReferences": {},
  "deployedLinkReferences": {}
}